:100000000C9439000C94C1050C94C1050C94C105E5
:100010000C94C1050C94C1050C94C1050C94C10548
:100020000C94C1050C94C1050C94F7030C94550372
:100030000C94C1050C941E040C946C040C9445049F
:100040000C94A9030C94C1050C94C1050C94D00325
:100050000C94C10500600066800066008F000B9064
:10006000008F00978000970098000BB90098009AC5
:10007000800011241FBECFE5D8E0DEBFCDBFE4E590
:10008000F0E040E017C0B591A5913591259105911B
:1000900007FD0CC095918591EF01F92FE82F059090
:1000A0000D92A217B307D9F7FE0104C01D92A21743
:1000B000B307E1F7E137F40731F70E94F0020C943F
:0600C0006E05F894FFCF6D
:1000C60010C00E949F0558F00E94980540F029F440
:1000D6005F3F29F00C94AD0551110C94A7050C94C3
:1000E600BE050E94B50468F39923B1F3552391F335
:1000F600951B550BBB27AA2762177307840738F091
:100106009F5F5F4F220F331F441FAA1FA9F335D0ED
:100116000E2E3AF0E0E832D091505040E695001CA1
:10012600CAF72BD0FE2F29D0660F771F881FBB1F5B
:10013600261737074807AB07B0E809F0BB0B802D39
:10014600BF01FF2793585F4F3AF09E3F510578F065
:100156000C94AD050C94A7055F3FE4F3983ED4F3E9
:10016600869577956795B795F7959F5FC9F7880F39
:10017600911D9695879597F90895E1E0660F771F8B
:10018600881FBB1F621773078407BA0720F0621B1C
:0E019600730B840BBA0BEE1F88F7E0950895EB
:1001A4000FC00E94980538F00E949F0520F0952307
:1001B40011F00C94AD050C94BE0511240C94A70504
:1001C4000E94B50470F3959FC1F3950F50E0551F3D
:1001D400629FF001729FBB27F00DB11D639FAA2798
:1001E400F00DB11DAA1F649F6627B00DA11D661FE7
:1001F400829F2227B00DA11D621F739FB00DA11D08
:10020400621F839FA00D611D221F749F3327A00DC1
:10021400611D231F849F600D211D822F762F6A2F5D
:1002240011249F5750409AF0F1F088234AF0EE0FC2
:10023400FF1FBB1F661F771F881F91505040A9F7EF
:100244009E3F510580F00C94AD050C94A7055F3FCB
:10025400E4F3983ED4F3869577956795B795F7952B
:10026400E7959F5FC1F7FE2B880F911D96958795A3
:0402740097F9089559
:100278009B01482F61157105810509F44CC0FB01EC
:10028800849147FD8081869586958770F901549100
:1002980047FD508155FB662760F955FF03C0613063
:1002A800F1F03BC0F901949147FD90819370E92FDB
:1002B800F0E0EE0FFF1FE958FF4F0190F081E02DAD
:1002C800408121E030E0B90102C0660F771F8A95AE
:1002D800E2F7CB0180958423808381E00895F901BA
:1002E800949147FD90819370E92FF0E0EE0FFF1F86
:1002F800E958FF4F0190F081E02D408121E030E086
:10030800B90102C0660F771F8A95E2F7CB01842BEB
:0E031800808381E0089580E0089580E00895DC
:10032600CF92DF92EF926B01E82E61157105810580
:1003360009F445C0FB018491E7FC8081869586958A
:100346008770442319F04130F1F03BC0F6019491D7
:10035600E7FC90819370E92FF0E0EE0FFF1FE15963
:10036600FF4F0190F081E02D408121E030E0B9019E
:1003760002C0660F771F8A95E2F7CB01809584232A
:10038600808381E01FC0F6019491E7FC9081937011
:10039600E92FF0E0EE0FFF1FE159FF4F0190F081CA
:1003A600E02D408121E030E0B90102C0660F771FE1
:1003B6008A95E2F7CB01842B808381E003C080E03D
:0C03C60001C080E0EF90DF90CF90089520
:1003D2000F931F93CF93DF930F92CDB7DEB78C01AC
:1003E20093B7F8018081892B83BF8081883611F011
:1003F200883749F4809197008983BE016F5F7F4FF0
:1004020080E80E94F90493B7F8018181892B83BFA8
:1004120081818650823060F489818C7F8160817C09
:100422008F7B8983BE016F5F7F4F80E80E94F90452
:10043200F8018381813051F489B7826089BF789451
:10044200868197819093940080939300F801828132
:10045200813051F489B7816089BF78948481958114
:1004620090939600809395000F90DF91CF911F910A
:040472000F91089549
:10047600CF93DF93EC01298130E040E050E060E06B
:1004860072E18AE790E00E941505BA01A901405180
:10049600510961097109DB01CA011AF40196A11D0E
:1004A600B11DB595A7959795879580B991B18A8124
:1004B6008370892B81B98C81880F82B98D818130B7
:1004C60019F482B1816082B98B81813051F48E81B9
:1004D6009F81909392008093910086B7816086BF3A
:0C04E600789484E086BFDF91CF910895E8
:1004F200E89409C097FB3EF49095809570956195BC
:100502007F4F8F4F9F4F9923A9F0F92F96E9BB2771
:100512009395F695879577956795B795F111F8CFED
:10052200FAF4BB0F11F460FF1BC06F5F7F4F8F4F58
:100532009F4F16C0882311F096E911C0772321F04E
:100542009EE8872F762F05C0662371F096E8862FE6
:1005520070E060E02AF09A95660F771F881FDAF73D
:0A056200880F9695879597F9089584
:10056C00FC0127B1908130E4939FC0011124822BB0
:10057C0087B927B1938130E2939FC0011124822B5C
:10058C0087B996B18581892B86B98181882341F001
:10059C0020B7968130E2939FC0011124822B80BF3B
:1005AC008481882399F0789487819085909390002A
:1005BC0080938F0026B19481892F90E0880F991F2A
:1005CC00880F991F880F991F822B86B986B1806876
:0405DC0086B908953F
:1005E00087E890E00E943B0200E021E041E061E406
:1005F00070E082E10E9481038FE790E00E94E901B0
:1006000060E58FE790E00E94930486E690E00E9408
:10061000B60280E00E94790586E690E00E942C05F3
:1006200080939900682F70E0605D7F4F01E021E0CA
:1006300041E082E10E9481032FE986E891E02150A8
:0C06400080409040E1F700C00000E3CFD4
:10064C000E94BD0488F09F5798F0B92F9927B75195
:10065C00B0F0E1F0660F771F881F991F1AF0BA955A
:10066C00C9F714C0B13091F00E94A605B1E008950D
:10067C000C94A605672F782F8827B85F39F0B93FFF
:10068C00CCF3869577956795B395D9F73EF490950D
:0E069C008095709561957F4F8F4F9F4F089509
:1006AA001F920F920FB60F9211242F933F934F93DD
:1006BA005F936F937F938F939F93AF93BF93EF93C0
:1006CA00FF93809198008F5F80939800E091950046
:1006DA00F09196000995FF91EF91BF91AF919F918B
:1006EA008F917F916F915F914F913F912F910F90D1
:0806FA000FBE0F901F90189530
:10070200EF92FF920F93CF93DF93D82F7B01C22FEB
:10071200802F0E94530560E08D2F0E94810588E1A1
:100722000E9463058823D9F3C7010E94910588E2DC
:100732000E9463058823D9F3C11104C08C2F90E075
:100742000E94BB05DF91CF910F91FF90EF9008952A
:100752001F920F920FB60F9211242F933F934F9334
:100762005F936F937F938F939F93AF93BF93EF9317
:10077200FF93E0918F00F09190000995FF91EF9126
:10078200BF91AF919F918F917F916F915F914F91A7
:0E0792003F912F910F900FBE0F901F90189562
:1007A0001F920F920FB60F9211242F933F934F93E6
:1007B0005F936F937F938F939F93AF93BF93EF93C9
:1007C000FF93E0919100F09192000995FF91EF91D4
:1007D000BF91AF919F918F917F916F915F914F9159
:0E07E0003F912F910F900FBE0F901F90189514
:1007EE001F920F920FB60F9211242F933F934F9398
:1007FE005F936F937F938F939F93AF93BF93EF937B
:10080E00FF93E0919300F09194000995FF91EF9181
:10081E00BF91AF919F918F917F916F915F914F910A
:0E082E003F912F910F900FBE0F901F901895C5
:10083C001F920F920FB60F9211242F933F934F9349
:10084C005F936F937F938F939F93AF93BF93EF932C
:10085C00FF93E0916400F09165000995FF91EF9191
:10086C00BF91AF919F918F917F916F915F914F91BC
:0E087C003F912F910F900FBE0F901F90189577
:10088A001F920F920FB60F9211242F933F934F93FB
:10089A005F936F937F938F939F93AF93BF93EF93DE
:1008AA00FF93E0916000F09161000995FF91EF914B
:1008BA00BF91AF919F918F917F916F915F914F916E
:0E08CA003F912F910F900FBE0F901F90189529
:1008D8001F920F920FB60F9211242F933F934F93AD
:1008E8005F936F937F938F939F93AF93BF93EF9390
:1008F800FF93E0916200F09163000995FF91EF91F9
:10090800BF91AF919F918F917F916F915F914F911F
:0E0918003F912F910F900FBE0F901F901895DA
:10092600CF93DF93EC0170E080E090E00E947B02C1
:1009360020E030E048EC52E40E94B30520E030E0CD
:100946004FE753E40E94B7050E9426038881883644
:1009560011F46CBF04C0883711F460956CBFDF9149
:04096600CF91089590
:10096A0057FD9058440F551F59F05F3F71F0479556
:10097A00880F97FB991F61F09F3F79F0879508953B
:10098A00121613061406551FF2CF4695F1DF08C05A
:10099A00161617061806991FF1CF86957105610577
:0409AA000894089510
:1009AE00A1E21A2EAA1BBB1BFD010DC0AA1FBB1F65
:1009BE00EE1FFF1FA217B307E407F50720F0A21BD7
:1009CE00B30BE40BF50B661F771F881F991F1A9444
:1009DE0069F760957095809590959B01AC01BD016E
:0409EE00CF01089598
:1009F200CF92DF92EF9261157105810581F06B0153
:100A0200E82E0E943C01F6014491E7FC408146FB3E
:100A1200442740F98E2DB6010E94930101C080E067
:080A2200EF90DF90CF900895E2
:100A2A00052E97FB1EF400940E94890557FD07D0F6
:100A3A000E94D70407FC03D04EF40C948905509504
:0E0A4A004095309521953F4F4F4F5F4F0895D7
:100A5800FC0186B196B1906196B98281813019F412
:100A680084B195B108959381913029F4811103C01F
:0C0A780085B190E0089584B195B1089517
:100A8400092E0394000C11F4882352F0BB0F40F498
:100A9400BF2B11F460FF04C06F5F7F4F8F4F9F4FD8
:020AA4000895B3
:100AA60094EA96BF813031F480E10E946305882381
:100AB600D9F3089588E00E9463058823D9F3089541
:100AC60090E021B1287F30E08217930711F080E093
:060AD600089581E008957F
:100ADC00EC010E94C6050E94C505CE010E94C70507
:060AEC00CE010E94C305CB
:100AF20097B18F70982B97B986B1806486B90895A3
:100B020090E0880F991F862B90E00E94910508952E
:100B120090958095709561957F4F8F4F9F4F089567
:0E0B220083B984E886BF06B607FEFDCF0895AE
:0E0B300000240A9416161706180609060895E2
:0E0B3E0000240A9412161306140605060895E4
:0E0B4C00E894BB2766277727CB0197F9089519
:0C0B5A0097F99F6780E870E060E0089564
:080B66000E9463000C9442059B
:080B6E000E94D2000C94420524
:060B760084E986BF08952A
:060B7C009FEF80EC0895DC
:040B82000C940000CF
:040B86000E94610068
:020B8A000895CC
:020B8C000895CA
:020B8E000895C8
:090B900003000001000300000055
:080B99003B003800350032007A
:080BA1003A0037003400310076
:080BA9006803000000000000D9
:080BB10001A00000000000009B
:010BB9002D0E
:00000001FF
